:0400000080313128F2
:100008007E1480314E01161E0A280B2813280C1E58
:100018000E280F28132881318E2180312F28961E13
:10002800162817281F288C1E1A281B281F288131DC
:10003800C62180312F280B1F222823282F281A1C7D
:10004800262827282F28101C2A282B282F288131DA
:10005800152180312F287E10090080313328F601C0
:10006800F701F801F9017E10400181319729043028
:100078004001980099019A013B3092009301FF30AA
:100088009400FB307E01CE00F030C3003730B8005A
:10009800C401B9010430CF00BA01C501D00137301D
:1000A800BB00F030C600FF30D1003F30BC00F0305C
:1000B800C700FF30D200551154115315DB304001F1
:1000C800A0000130A1008131BA2180314E011616FD
:1000D80012307D01900007307E019E0008309F009D
:1000E80006309D0005309C0008008131D521803103
:1000F80003104001181D03140318832886284001A3
:1001080018158828400118118131D82180317408C8
:100118007504031990289128962875088A00740890
:100128000A0080317E015511080044018F019001B9
:1001380002309100E7308D008C014E01101044010F
:100148000D08F9000C08F8004E011A142A30400175
:10015800A0000130A1008131AE218031013044017D
:100168008E00080041018C018D018E018F019201E2
:10017800930198019A019F010A3042018C008D0178
:100188008E018F01900192019301940195019601CE
:100198009701980184309100080081317B218031DA
:1001A80080313B2080318131852180318031B620FA
:1001B80080318131622180318031992080318131D3
:1001C800002180318031EA20803108000C304C0158
:1001D800910001308E0001308F001430920093019D
:1001E8000F30940001308C0007308D008230900071
:1001F8008131CC21803108005F304B019F00F33002
:100208009D009C014E018C1296163E304001A000C4
:100218000130A1008131B421813180304B019E0031
:1002280008004E0110107908FB007808FA008131A7
:10023800512181317008710403192329242929299E
:1002480071088A0070080A00813108000430813181
:100258009F2181318131A7218131003A0319352944
:1002680036292E298131C02181317B08F7007A088F
:10027800F60008008131D221813103104001181D98
:100288000314031848294B29400118154D2940012A
:1002980018118131CF218131080044010E1D5529E3
:1002A80056295D290E107B088D007A088C000E14E3
:1002B80061297B088D007A088C0008004B019201A7
:1002C80093018E018D018C0191012E309000D9305F
:1002D8008F0092170800720873040319742975298E
:1002E8007A2973088A0072080A00813108004F01D0
:1002F80096019701980199019A019B019C019D0122
:100308000800603051018D008F0191010630930083
:10031800920108007E01551D922993299629803162
:100328007920813108008031D12081318B170B175A
:100338009C2980313128FA007A0841019F00420146
:1003480091171114080003104201111C0314003006
:10035800093D080040012108F1002008F0000800CC
:1003680040012108F3002008F2000800400121089C
:10037800F5002008F400080041011E08FB001D08D4
:10038800FA0008004E018C1281316F21813108007A
:100398004C01921708004C01921708004B019E135C
:1003A80008004B019E1708004C0192130800080032
:020000040001F9
:08000000FF3FFF3FFF3FFF3F00
:0A000E00EC3FFF3F9F3FFF3FFF3F25
:00000001FF
