:040000008031202803
:100008007E1480314E01161E0A280B2813280C1E58
:100018000E280F2813288031F52080311E28961EBF
:10002800162817281E288C1E1A281B281E288031DF
:10003800612080317E100900803122287E10400125
:100048008031FE284001980199019A013B309200C5
:100058009301FF309400FB307E01CE00F030C300E6
:100068003730B800C401B901CF01BA01C501D001C8
:100078003730BB00F030C600FF30D1003F30BC0045
:10008800F030C700FF30D200551154155315173002
:10009800F4000130F50081310B2180314E01161634
:1000A80012307D01900007307E019E0008309F00CD
:1000B80006309D0005309C0008004E018C12700827
:1000C80071040319682869286E2871088A00700865
:1000D8000A00803181311021803103104001181D40
:1000E8000314031878287B28400118157D2840013F
:1000F8001811080081311321803103104001181DA7
:100108000314031888288B28400118158D284001EE
:1001180018117208730403199228932898287308F1
:100128008A0072080A0080317E0155110800C63025
:100138004B019F0099309D009C014E018C12961630
:100148001630F4000130F500813106218031893004
:100158004B019E0008008031E2208031803126204A
:1001680080318031EC2080318031D5208031803160
:100178009B2080318031C220803108000C304C0136
:10018800910001308E0001308F00143092009301ED
:100198000F30940001308C0007308D0082309000C1
:1001A80008004B01920193018E018D018C01910190
:1001B8002E309000D9308F00921708004F01960119
:1001C8009701980199019A019B019C019D010800E2
:1001D800603051018D008F0191010630930092012A
:1001E80008007E01551DF928FA28FD2880317E2057
:1001F800803108008031AF2080318B170B1703291D
:10020800803120287508F1007408F000080075088E
:10021800F3007408F20008004B019E1308004B011C
:080228009E1708000800080001
:020000040001F9
:08000000FF3FFF3FFF3FFF3F00
:0A000E00EC3FFF3F9F3FFF3FFF3F25
:00000001FF
